{
  "_format": "hh-sol-artifact-1",
  "contractName": "ERCContract",
  "sourceName": "contracts/ERCContract.sol",
  "abi": [
    {
      "inputs": [],
      "stateMutability": "nonpayable",
      "type": "constructor"
    },
    {
      "anonymous": false,
      "inputs": [
        {
          "indexed": true,
          "internalType": "address",
          "name": "account",
          "type": "address"
        },
        {
          "indexed": true,
          "internalType": "address",
          "name": "operator",
          "type": "address"
        },
        {
          "indexed": false,
          "internalType": "bool",
          "name": "approved",
          "type": "bool"
        }
      ],
      "name": "ApprovalForAll",
      "type": "event"
    },
    {
      "anonymous": false,
      "inputs": [
        {
          "indexed": true,
          "internalType": "address",
          "name": "previousOwner",
          "type": "address"
        },
        {
          "indexed": true,
          "internalType": "address",
          "name": "newOwner",
          "type": "address"
        }
      ],
      "name": "OwnershipTransferred",
      "type": "event"
    },
    {
      "anonymous": false,
      "inputs": [
        {
          "indexed": true,
          "internalType": "address",
          "name": "operator",
          "type": "address"
        },
        {
          "indexed": true,
          "internalType": "address",
          "name": "from",
          "type": "address"
        },
        {
          "indexed": true,
          "internalType": "address",
          "name": "to",
          "type": "address"
        },
        {
          "indexed": false,
          "internalType": "uint256[]",
          "name": "ids",
          "type": "uint256[]"
        },
        {
          "indexed": false,
          "internalType": "uint256[]",
          "name": "values",
          "type": "uint256[]"
        }
      ],
      "name": "TransferBatch",
      "type": "event"
    },
    {
      "anonymous": false,
      "inputs": [
        {
          "indexed": true,
          "internalType": "address",
          "name": "operator",
          "type": "address"
        },
        {
          "indexed": true,
          "internalType": "address",
          "name": "from",
          "type": "address"
        },
        {
          "indexed": true,
          "internalType": "address",
          "name": "to",
          "type": "address"
        },
        {
          "indexed": false,
          "internalType": "uint256",
          "name": "id",
          "type": "uint256"
        },
        {
          "indexed": false,
          "internalType": "uint256",
          "name": "value",
          "type": "uint256"
        }
      ],
      "name": "TransferSingle",
      "type": "event"
    },
    {
      "anonymous": false,
      "inputs": [
        {
          "indexed": false,
          "internalType": "string",
          "name": "value",
          "type": "string"
        },
        {
          "indexed": true,
          "internalType": "uint256",
          "name": "id",
          "type": "uint256"
        }
      ],
      "name": "URI",
      "type": "event"
    },
    {
      "inputs": [],
      "name": "CROWN",
      "outputs": [
        {
          "internalType": "uint256",
          "name": "",
          "type": "uint256"
        }
      ],
      "stateMutability": "view",
      "type": "function"
    },
    {
      "inputs": [],
      "name": "GOLD",
      "outputs": [
        {
          "internalType": "uint256",
          "name": "",
          "type": "uint256"
        }
      ],
      "stateMutability": "view",
      "type": "function"
    },
    {
      "inputs": [],
      "name": "SHIELD",
      "outputs": [
        {
          "internalType": "uint256",
          "name": "",
          "type": "uint256"
        }
      ],
      "stateMutability": "view",
      "type": "function"
    },
    {
      "inputs": [],
      "name": "SILVER",
      "outputs": [
        {
          "internalType": "uint256",
          "name": "",
          "type": "uint256"
        }
      ],
      "stateMutability": "view",
      "type": "function"
    },
    {
      "inputs": [],
      "name": "SWORD",
      "outputs": [
        {
          "internalType": "uint256",
          "name": "",
          "type": "uint256"
        }
      ],
      "stateMutability": "view",
      "type": "function"
    },
    {
      "inputs": [
        {
          "internalType": "address",
          "name": "account",
          "type": "address"
        },
        {
          "internalType": "uint256",
          "name": "id",
          "type": "uint256"
        }
      ],
      "name": "balanceOf",
      "outputs": [
        {
          "internalType": "uint256",
          "name": "",
          "type": "uint256"
        }
      ],
      "stateMutability": "view",
      "type": "function"
    },
    {
      "inputs": [
        {
          "internalType": "address[]",
          "name": "accounts",
          "type": "address[]"
        },
        {
          "internalType": "uint256[]",
          "name": "ids",
          "type": "uint256[]"
        }
      ],
      "name": "balanceOfBatch",
      "outputs": [
        {
          "internalType": "uint256[]",
          "name": "",
          "type": "uint256[]"
        }
      ],
      "stateMutability": "view",
      "type": "function"
    },
    {
      "inputs": [],
      "name": "getAllTokenData",
      "outputs": [
        {
          "internalType": "uint256[]",
          "name": "",
          "type": "uint256[]"
        },
        {
          "internalType": "string[]",
          "name": "",
          "type": "string[]"
        }
      ],
      "stateMutability": "view",
      "type": "function"
    },
    {
      "inputs": [
        {
          "internalType": "address",
          "name": "account",
          "type": "address"
        },
        {
          "internalType": "address",
          "name": "operator",
          "type": "address"
        }
      ],
      "name": "isApprovedForAll",
      "outputs": [
        {
          "internalType": "bool",
          "name": "",
          "type": "bool"
        }
      ],
      "stateMutability": "view",
      "type": "function"
    },
    {
      "inputs": [
        {
          "internalType": "uint256",
          "name": "tokenId",
          "type": "uint256"
        },
        {
          "internalType": "uint256",
          "name": "amount",
          "type": "uint256"
        },
        {
          "internalType": "string",
          "name": "newURI",
          "type": "string"
        },
        {
          "internalType": "address",
          "name": "to",
          "type": "address"
        }
      ],
      "name": "mintToken",
      "outputs": [],
      "stateMutability": "nonpayable",
      "type": "function"
    },
    {
      "inputs": [],
      "name": "owner",
      "outputs": [
        {
          "internalType": "address",
          "name": "",
          "type": "address"
        }
      ],
      "stateMutability": "view",
      "type": "function"
    },
    {
      "inputs": [],
      "name": "renounceOwnership",
      "outputs": [],
      "stateMutability": "nonpayable",
      "type": "function"
    },
    {
      "inputs": [
        {
          "internalType": "address",
          "name": "from",
          "type": "address"
        },
        {
          "internalType": "address",
          "name": "to",
          "type": "address"
        },
        {
          "internalType": "uint256[]",
          "name": "ids",
          "type": "uint256[]"
        },
        {
          "internalType": "uint256[]",
          "name": "amounts",
          "type": "uint256[]"
        },
        {
          "internalType": "bytes",
          "name": "data",
          "type": "bytes"
        }
      ],
      "name": "safeBatchTransferFrom",
      "outputs": [],
      "stateMutability": "nonpayable",
      "type": "function"
    },
    {
      "inputs": [
        {
          "internalType": "address",
          "name": "from",
          "type": "address"
        },
        {
          "internalType": "address",
          "name": "to",
          "type": "address"
        },
        {
          "internalType": "uint256",
          "name": "id",
          "type": "uint256"
        },
        {
          "internalType": "uint256",
          "name": "amount",
          "type": "uint256"
        },
        {
          "internalType": "bytes",
          "name": "data",
          "type": "bytes"
        }
      ],
      "name": "safeTransferFrom",
      "outputs": [],
      "stateMutability": "nonpayable",
      "type": "function"
    },
    {
      "inputs": [
        {
          "internalType": "address",
          "name": "operator",
          "type": "address"
        },
        {
          "internalType": "bool",
          "name": "approved",
          "type": "bool"
        }
      ],
      "name": "setApprovalForAll",
      "outputs": [],
      "stateMutability": "nonpayable",
      "type": "function"
    },
    {
      "inputs": [
        {
          "internalType": "uint256",
          "name": "tokenId",
          "type": "uint256"
        },
        {
          "internalType": "string",
          "name": "newURI",
          "type": "string"
        }
      ],
      "name": "setTokenURI",
      "outputs": [],
      "stateMutability": "nonpayable",
      "type": "function"
    },
    {
      "inputs": [
        {
          "internalType": "bytes4",
          "name": "interfaceId",
          "type": "bytes4"
        }
      ],
      "name": "supportsInterface",
      "outputs": [
        {
          "internalType": "bool",
          "name": "",
          "type": "bool"
        }
      ],
      "stateMutability": "view",
      "type": "function"
    },
    {
      "inputs": [
        {
          "internalType": "address",
          "name": "newOwner",
          "type": "address"
        }
      ],
      "name": "transferOwnership",
      "outputs": [],
      "stateMutability": "nonpayable",
      "type": "function"
    },
    {
      "inputs": [
        {
          "internalType": "uint256",
          "name": "tokenId",
          "type": "uint256"
        }
      ],
      "name": "uri",
      "outputs": [
        {
          "internalType": "string",
          "name": "",
          "type": "string"
        }
      ],
      "stateMutability": "view",
      "type": "function"
    }
  ],
  "bytecode": "0x60806040523480156200001157600080fd5b506040518060a001604052806064815260200162004811606491396200003d816200020960201b60201c565b506200005e620000526200021e60201b60201c565b6200022660201b60201c565b6200008a336000670de0b6b3a764000060405180602001604052806000815250620002ec60201b60201c565b620000b6336001670de0b6b3a764000060405180602001604052806000815250620002ec60201b60201c565b620000dc3360026103e860405180602001604052806000815250620002ec60201b60201c565b620001023360036103e860405180602001604052806000815250620002ec60201b60201c565b62000127336004600160405180602001604052806000815250620002ec60201b60201c565b6200015360006040518060a0016040528060648152602001620047ad60649139620004d360201b60201c565b6200017f60016040518060a0016040528060648152602001620046e560649139620004d360201b60201c565b620001ab60026040518060a0016040528060648152602001620048d960649139620004d360201b60201c565b620001d760036040518060a00160405280606481526020016200487560649139620004d360201b60201c565b6200020360046040518060a00160405280606481526020016200474960649139620004d360201b60201c565b62001239565b80600290816200021a919062000ae7565b5050565b600033905090565b6000600360009054906101000a900473ffffffffffffffffffffffffffffffffffffffff16905081600360006101000a81548173ffffffffffffffffffffffffffffffffffffffff021916908373ffffffffffffffffffffffffffffffffffffffff1602179055508173ffffffffffffffffffffffffffffffffffffffff168173ffffffffffffffffffffffffffffffffffffffff167f8be0079c531659141344cd1fd0a4f28419497f9722a3daafe3b4186f6b6457e060405160405180910390a35050565b600073ffffffffffffffffffffffffffffffffffffffff168473ffffffffffffffffffffffffffffffffffffffff16036200035e576040517f08c379a0000000000000000000000000000000000000000000000000000000008152600401620003559062000c55565b60405180910390fd5b6000620003706200021e60201b60201c565b9050600062000385856200050a60201b60201c565b905060006200039a856200050a60201b60201c565b9050620003b3836000898585896200058b60201b60201c565b8460008088815260200190815260200160002060008973ffffffffffffffffffffffffffffffffffffffff1673ffffffffffffffffffffffffffffffffffffffff168152602001908152602001600020600082825462000414919062000ca6565b925050819055508673ffffffffffffffffffffffffffffffffffffffff16600073ffffffffffffffffffffffffffffffffffffffff168473ffffffffffffffffffffffffffffffffffffffff167fc3d58168c5ae7397731d063d5bbf3d657854427343f4c083240f7aacaa2d0f6289896040516200049492919062000cf2565b60405180910390a4620004b3836000898585896200059360201b60201c565b620004ca836000898989896200059b60201b60201c565b50505050505050565b620004e36200078f60201b60201c565b8060046000848152602001908152602001600020908162000505919062000ae7565b505050565b60606000600167ffffffffffffffff8111156200052c576200052b62000878565b5b6040519080825280602002602001820160405280156200055b5781602001602082028036833780820191505090505b509050828160008151811062000576576200057562000d1f565b5b60200260200101818152505080915050919050565b505050505050565b505050505050565b620005c28473ffffffffffffffffffffffffffffffffffffffff166200082060201b60201c565b1562000787578373ffffffffffffffffffffffffffffffffffffffff1663f23a6e6187878686866040518663ffffffff1660e01b81526004016200060b95949392919062000e2d565b6020604051808303816000875af19250505080156200064a57506040513d601f19601f8201168201806040525081019062000647919062000efd565b60015b620006fb576200065962000f3c565b806308c379a003620006bc57506200067062000f97565b806200067d5750620006be565b806040517f08c379a0000000000000000000000000000000000000000000000000000000008152600401620006b3919062001073565b60405180910390fd5b505b6040517f08c379a0000000000000000000000000000000000000000000000000000000008152600401620006f2906200110d565b60405180910390fd5b63f23a6e6160e01b7bffffffffffffffffffffffffffffffffffffffffffffffffffffffff1916817bffffffffffffffffffffffffffffffffffffffffffffffffffffffff19161462000785576040517f08c379a00000000000000000000000000000000000000000000000000000000081526004016200077c90620011a5565b60405180910390fd5b505b505050505050565b6200079f6200021e60201b60201c565b73ffffffffffffffffffffffffffffffffffffffff16620007c56200084360201b60201c565b73ffffffffffffffffffffffffffffffffffffffff16146200081e576040517f08c379a0000000000000000000000000000000000000000000000000000000008152600401620008159062001217565b60405180910390fd5b565b6000808273ffffffffffffffffffffffffffffffffffffffff163b119050919050565b6000600360009054906101000a900473ffffffffffffffffffffffffffffffffffffffff16905090565b600081519050919050565b7f4e487b7100000000000000000000000000000000000000000000000000000000600052604160045260246000fd5b7f4e487b7100000000000000000000000000000000000000000000000000000000600052602260045260246000fd5b60006002820490506001821680620008ef57607f821691505b602082108103620009055762000904620008a7565b5b50919050565b60008190508160005260206000209050919050565b60006020601f8301049050919050565b600082821b905092915050565b6000600883026200096f7fffffffffffffffffffffffffffffffffffffffffffffffffffffffffffffffff8262000930565b6200097b868362000930565b95508019841693508086168417925050509392505050565b6000819050919050565b6000819050919050565b6000620009c8620009c2620009bc8462000993565b6200099d565b62000993565b9050919050565b6000819050919050565b620009e483620009a7565b620009fc620009f382620009cf565b8484546200093d565b825550505050565b600090565b62000a1362000a04565b62000a20818484620009d9565b505050565b5b8181101562000a485762000a3c60008262000a09565b60018101905062000a26565b5050565b601f82111562000a975762000a61816200090b565b62000a6c8462000920565b8101602085101562000a7c578190505b62000a9462000a8b8562000920565b83018262000a25565b50505b505050565b600082821c905092915050565b600062000abc6000198460080262000a9c565b1980831691505092915050565b600062000ad7838362000aa9565b9150826002028217905092915050565b62000af2826200086d565b67ffffffffffffffff81111562000b0e5762000b0d62000878565b5b62000b1a8254620008d6565b62000b2782828562000a4c565b600060209050601f83116001811462000b5f576000841562000b4a578287015190505b62000b56858262000ac9565b86555062000bc6565b601f19841662000b6f866200090b565b60005b8281101562000b995784890151825560018201915060208501945060208101905062000b72565b8683101562000bb9578489015162000bb5601f89168262000aa9565b8355505b6001600288020188555050505b505050505050565b600082825260208201905092915050565b7f455243313135353a206d696e7420746f20746865207a65726f2061646472657360008201527f7300000000000000000000000000000000000000000000000000000000000000602082015250565b600062000c3d60218362000bce565b915062000c4a8262000bdf565b604082019050919050565b6000602082019050818103600083015262000c708162000c2e565b9050919050565b7f4e487b7100000000000000000000000000000000000000000000000000000000600052601160045260246000fd5b600062000cb38262000993565b915062000cc08362000993565b925082820190508082111562000cdb5762000cda62000c77565b5b92915050565b62000cec8162000993565b82525050565b600060408201905062000d09600083018562000ce1565b62000d18602083018462000ce1565b9392505050565b7f4e487b7100000000000000000000000000000000000000000000000000000000600052603260045260246000fd5b600073ffffffffffffffffffffffffffffffffffffffff82169050919050565b600062000d7b8262000d4e565b9050919050565b62000d8d8162000d6e565b82525050565b600081519050919050565b600082825260208201905092915050565b60005b8381101562000dcf57808201518184015260208101905062000db2565b60008484015250505050565b6000601f19601f8301169050919050565b600062000df98262000d93565b62000e05818562000d9e565b935062000e1781856020860162000daf565b62000e228162000ddb565b840191505092915050565b600060a08201905062000e44600083018862000d82565b62000e53602083018762000d82565b62000e62604083018662000ce1565b62000e71606083018562000ce1565b818103608083015262000e85818462000dec565b90509695505050505050565b6000604051905090565b600080fd5b60007fffffffff0000000000000000000000000000000000000000000000000000000082169050919050565b62000ed78162000ea0565b811462000ee357600080fd5b50565b60008151905062000ef78162000ecc565b92915050565b60006020828403121562000f165762000f1562000e9b565b5b600062000f268482850162000ee6565b91505092915050565b60008160e01c9050919050565b600060033d111562000f5e5760046000803e62000f5b60005162000f2f565b90505b90565b62000f6c8262000ddb565b810181811067ffffffffffffffff8211171562000f8e5762000f8d62000878565b5b80604052505050565b600060443d106200102f5762000fac62000e91565b60043d036004823e80513d602482011167ffffffffffffffff8211171562000fd65750506200102f565b808201805167ffffffffffffffff81111562000ff657505050506200102f565b80602083010160043d038501811115620010155750505050506200102f565b620010268260200185018662000f61565b82955050505050505b90565b60006200103f826200086d565b6200104b818562000bce565b93506200105d81856020860162000daf565b620010688162000ddb565b840191505092915050565b600060208201905081810360008301526200108f818462001032565b905092915050565b7f455243313135353a207472616e7366657220746f206e6f6e2d4552433131353560008201527f526563656976657220696d706c656d656e746572000000000000000000000000602082015250565b6000620010f560348362000bce565b9150620011028262001097565b604082019050919050565b600060208201905081810360008301526200112881620010e6565b9050919050565b7f455243313135353a204552433131353552656365697665722072656a6563746560008201527f6420746f6b656e73000000000000000000000000000000000000000000000000602082015250565b60006200118d60288362000bce565b91506200119a826200112f565b604082019050919050565b60006020820190508181036000830152620011c0816200117e565b9050919050565b7f4f776e61626c653a2063616c6c6572206973206e6f7420746865206f776e6572600082015250565b6000620011ff60208362000bce565b91506200120c82620011c7565b602082019050919050565b600060208201905081810360008301526200123281620011f0565b9050919050565b61349c80620012496000396000f3fe608060405234801561001057600080fd5b50600436106101205760003560e01c80635b2725ed116100ad578063a22cb46511610071578063a22cb465146102f8578063e3e55f0814610314578063e985e9c514610332578063f242432a14610362578063f2fde38b1461037e57610120565b80635b2725ed14610277578063715018a6146102955780638bbed20b1461029f5780638da5cb5b146102bb5780639ebeef59146102d957610120565b8063162094c4116100f4578063162094c4146101d357806318455da1146101ef5780632eb2c2d61461020d5780633e4bee38146102295780634e1273f41461024757610120565b8062fdd58e1461012557806301ffc9a7146101555780630e89341c1461018557806313dc989f146101b5575b600080fd5b61013f600480360381019061013a9190611c18565b61039a565b60405161014c9190611c67565b60405180910390f35b61016f600480360381019061016a9190611cda565b610462565b60405161017c9190611d22565b60405180910390f35b61019f600480360381019061019a9190611d3d565b610544565b6040516101ac9190611dfa565b60405180910390f35b6101bd6105e9565b6040516101ca9190611c67565b60405180910390f35b6101ed60048036038101906101e89190611f51565b6105ee565b005b6101f761061b565b6040516102049190611c67565b60405180910390f35b61022760048036038101906102229190612116565b610620565b005b6102316106c1565b60405161023e9190611c67565b60405180910390f35b610261600480360381019061025c91906122a8565b6106c6565b60405161026e91906123de565b60405180910390f35b61027f6107d9565b60405161028c9190611c67565b60405180910390f35b61029d6107de565b005b6102b960048036038101906102b49190612400565b6107f2565b005b6102c3610869565b6040516102d09190612492565b60405180910390f35b6102e1610893565b6040516102ef9291906125b9565b60405180910390f35b610312600480360381019061030d919061261c565b610aba565b005b61031c610ad0565b6040516103299190611c67565b60405180910390f35b61034c6004803603810190610347919061265c565b610ad5565b6040516103599190611d22565b60405180910390f35b61037c6004803603810190610377919061269c565b610b69565b005b61039860048036038101906103939190612733565b610c0a565b005b60008073ffffffffffffffffffffffffffffffffffffffff168373ffffffffffffffffffffffffffffffffffffffff160361040a576040517f08c379a0000000000000000000000000000000000000000000000000000000008152600401610401906127d2565b60405180910390fd5b60008083815260200190815260200160002060008473ffffffffffffffffffffffffffffffffffffffff1673ffffffffffffffffffffffffffffffffffffffff16815260200190815260200160002054905092915050565b60007fd9b67a26000000000000000000000000000000000000000000000000000000007bffffffffffffffffffffffffffffffffffffffffffffffffffffffff1916827bffffffffffffffffffffffffffffffffffffffffffffffffffffffff1916148061052d57507f0e89341c000000000000000000000000000000000000000000000000000000007bffffffffffffffffffffffffffffffffffffffffffffffffffffffff1916827bffffffffffffffffffffffffffffffffffffffffffffffffffffffff1916145b8061053d575061053c82610c8d565b5b9050919050565b606060046000838152602001908152602001600020805461056490612821565b80601f016020809104026020016040519081016040528092919081815260200182805461059090612821565b80156105dd5780601f106105b2576101008083540402835291602001916105dd565b820191906000526020600020905b8154815290600101906020018083116105c057829003601f168201915b50505050509050919050565b600281565b6105f6610cf7565b8060046000848152602001908152602001600020908161061691906129fe565b505050565b600481565b610628610d75565b73ffffffffffffffffffffffffffffffffffffffff168573ffffffffffffffffffffffffffffffffffffffff16148061066e575061066d85610668610d75565b610ad5565b5b6106ad576040517f08c379a00000000000000000000000000000000000000000000000000000000081526004016106a490612b42565b60405180910390fd5b6106ba8585858585610d7d565b5050505050565b600081565b6060815183511461070c576040517f08c379a000000000000000000000000000000000000000000000000000000000815260040161070390612bd4565b60405180910390fd5b6000835167ffffffffffffffff81111561072957610728611e26565b5b6040519080825280602002602001820160405280156107575781602001602082028036833780820191505090505b50905060005b84518110156107ce576107a485828151811061077c5761077b612bf4565b5b602002602001015185838151811061079757610796612bf4565b5b602002602001015161039a565b8282815181106107b7576107b6612bf4565b5b60200260200101818152505080600101905061075d565b508091505092915050565b600381565b6107e6610cf7565b6107f06000611098565b565b6107fa610cf7565b600484111561083e576040517f08c379a000000000000000000000000000000000000000000000000000000000815260040161083590612c6f565b60405180910390fd5b6108598185856040518060200160405280600081525061115e565b61086384836105ee565b50505050565b6000600360009054906101000a900473ffffffffffffffffffffffffffffffffffffffff16905090565b6060806000600567ffffffffffffffff8111156108b3576108b2611e26565b5b6040519080825280602002602001820160405280156108e15781602001602082028036833780820191505090505b5090506000600567ffffffffffffffff81111561090157610900611e26565b5b60405190808252806020026020018201604052801561093457816020015b606081526020019060019003908161091f5790505b50905060008260008151811061094d5761094c612bf4565b5b6020026020010181815250506109636000610544565b8160008151811061097757610976612bf4565b5b602002602001018190525060018260018151811061099857610997612bf4565b5b6020026020010181815250506109ae6001610544565b816001815181106109c2576109c1612bf4565b5b60200260200101819052506002826002815181106109e3576109e2612bf4565b5b6020026020010181815250506109f96002610544565b81600281518110610a0d57610a0c612bf4565b5b6020026020010181905250600382600381518110610a2e57610a2d612bf4565b5b602002602001018181525050610a446003610544565b81600381518110610a5857610a57612bf4565b5b6020026020010181905250600482600481518110610a7957610a78612bf4565b5b602002602001018181525050610a8f6004610544565b81600481518110610aa357610aa2612bf4565b5b602002602001018190525081819350935050509091565b610acc610ac5610d75565b838361130e565b5050565b600181565b6000600160008473ffffffffffffffffffffffffffffffffffffffff1673ffffffffffffffffffffffffffffffffffffffff16815260200190815260200160002060008373ffffffffffffffffffffffffffffffffffffffff1673ffffffffffffffffffffffffffffffffffffffff16815260200190815260200160002060009054906101000a900460ff16905092915050565b610b71610d75565b73ffffffffffffffffffffffffffffffffffffffff168573ffffffffffffffffffffffffffffffffffffffff161480610bb75750610bb685610bb1610d75565b610ad5565b5b610bf6576040517f08c379a0000000000000000000000000000000000000000000000000000000008152600401610bed90612b42565b60405180910390fd5b610c03858585858561147a565b5050505050565b610c12610cf7565b600073ffffffffffffffffffffffffffffffffffffffff168173ffffffffffffffffffffffffffffffffffffffff1603610c81576040517f08c379a0000000000000000000000000000000000000000000000000000000008152600401610c7890612d01565b60405180910390fd5b610c8a81611098565b50565b60007f01ffc9a7000000000000000000000000000000000000000000000000000000007bffffffffffffffffffffffffffffffffffffffffffffffffffffffff1916827bffffffffffffffffffffffffffffffffffffffffffffffffffffffff1916149050919050565b610cff610d75565b73ffffffffffffffffffffffffffffffffffffffff16610d1d610869565b73ffffffffffffffffffffffffffffffffffffffff1614610d73576040517f08c379a0000000000000000000000000000000000000000000000000000000008152600401610d6a90612d6d565b60405180910390fd5b565b600033905090565b8151835114610dc1576040517f08c379a0000000000000000000000000000000000000000000000000000000008152600401610db890612dff565b60405180910390fd5b600073ffffffffffffffffffffffffffffffffffffffff168473ffffffffffffffffffffffffffffffffffffffff1603610e30576040517f08c379a0000000000000000000000000000000000000000000000000000000008152600401610e2790612e91565b60405180910390fd5b6000610e3a610d75565b9050610e4a818787878787611715565b60005b8451811015610ff5576000858281518110610e6b57610e6a612bf4565b5b602002602001015190506000858381518110610e8a57610e89612bf4565b5b60200260200101519050600080600084815260200190815260200160002060008b73ffffffffffffffffffffffffffffffffffffffff1673ffffffffffffffffffffffffffffffffffffffff16815260200190815260200160002054905081811015610f2b576040517f08c379a0000000000000000000000000000000000000000000000000000000008152600401610f2290612f23565b60405180910390fd5b81810360008085815260200190815260200160002060008c73ffffffffffffffffffffffffffffffffffffffff1673ffffffffffffffffffffffffffffffffffffffff168152602001908152602001600020819055508160008085815260200190815260200160002060008b73ffffffffffffffffffffffffffffffffffffffff1673ffffffffffffffffffffffffffffffffffffffff1681526020019081526020016000206000828254610fe09190612f72565b92505081905550505050806001019050610e4d565b508473ffffffffffffffffffffffffffffffffffffffff168673ffffffffffffffffffffffffffffffffffffffff168273ffffffffffffffffffffffffffffffffffffffff167f4a39dc06d4c0dbc64b70af90fd698a233a518aa5d07e595d983b8c0526c8f7fb878760405161106c929190612fa6565b60405180910390a461108281878787878761171d565b611090818787878787611725565b505050505050565b6000600360009054906101000a900473ffffffffffffffffffffffffffffffffffffffff16905081600360006101000a81548173ffffffffffffffffffffffffffffffffffffffff021916908373ffffffffffffffffffffffffffffffffffffffff1602179055508173ffffffffffffffffffffffffffffffffffffffff168173ffffffffffffffffffffffffffffffffffffffff167f8be0079c531659141344cd1fd0a4f28419497f9722a3daafe3b4186f6b6457e060405160405180910390a35050565b600073ffffffffffffffffffffffffffffffffffffffff168473ffffffffffffffffffffffffffffffffffffffff16036111cd576040517f08c379a00000000000000000000000000000000000000000000000000000000081526004016111c49061304f565b60405180910390fd5b60006111d7610d75565b905060006111e4856118fc565b905060006111f1856118fc565b905061120283600089858589611715565b8460008088815260200190815260200160002060008973ffffffffffffffffffffffffffffffffffffffff1673ffffffffffffffffffffffffffffffffffffffff16815260200190815260200160002060008282546112619190612f72565b925050819055508673ffffffffffffffffffffffffffffffffffffffff16600073ffffffffffffffffffffffffffffffffffffffff168473ffffffffffffffffffffffffffffffffffffffff167fc3d58168c5ae7397731d063d5bbf3d657854427343f4c083240f7aacaa2d0f6289896040516112df92919061306f565b60405180910390a46112f68360008985858961171d565b61130583600089898989611976565b50505050505050565b8173ffffffffffffffffffffffffffffffffffffffff168373ffffffffffffffffffffffffffffffffffffffff160361137c576040517f08c379a00000000000000000000000000000000000000000000000000000000081526004016113739061310a565b60405180910390fd5b80600160008573ffffffffffffffffffffffffffffffffffffffff1673ffffffffffffffffffffffffffffffffffffffff16815260200190815260200160002060008473ffffffffffffffffffffffffffffffffffffffff1673ffffffffffffffffffffffffffffffffffffffff16815260200190815260200160002060006101000a81548160ff0219169083151502179055508173ffffffffffffffffffffffffffffffffffffffff168373ffffffffffffffffffffffffffffffffffffffff167f17307eab39ab6107e8899845ad3d59bd9653f200f220920489ca2b5937696c318360405161146d9190611d22565b60405180910390a3505050565b600073ffffffffffffffffffffffffffffffffffffffff168473ffffffffffffffffffffffffffffffffffffffff16036114e9576040517f08c379a00000000000000000000000000000000000000000000000000000000081526004016114e090612e91565b60405180910390fd5b60006114f3610d75565b90506000611500856118fc565b9050600061150d856118fc565b905061151d838989858589611715565b600080600088815260200190815260200160002060008a73ffffffffffffffffffffffffffffffffffffffff1673ffffffffffffffffffffffffffffffffffffffff168152602001908152602001600020549050858110156115b4576040517f08c379a00000000000000000000000000000000000000000000000000000000081526004016115ab90612f23565b60405180910390fd5b85810360008089815260200190815260200160002060008b73ffffffffffffffffffffffffffffffffffffffff1673ffffffffffffffffffffffffffffffffffffffff168152602001908152602001600020819055508560008089815260200190815260200160002060008a73ffffffffffffffffffffffffffffffffffffffff1673ffffffffffffffffffffffffffffffffffffffff16815260200190815260200160002060008282546116699190612f72565b925050819055508773ffffffffffffffffffffffffffffffffffffffff168973ffffffffffffffffffffffffffffffffffffffff168573ffffffffffffffffffffffffffffffffffffffff167fc3d58168c5ae7397731d063d5bbf3d657854427343f4c083240f7aacaa2d0f628a8a6040516116e692919061306f565b60405180910390a46116fc848a8a86868a61171d565b61170a848a8a8a8a8a611976565b505050505050505050565b505050505050565b505050505050565b6117448473ffffffffffffffffffffffffffffffffffffffff16611b4d565b156118f4578373ffffffffffffffffffffffffffffffffffffffff1663bc197c8187878686866040518663ffffffff1660e01b815260040161178a95949392919061317f565b6020604051808303816000875af19250505080156117c657506040513d601f19601f820116820180604052508101906117c391906131fc565b60015b61186b576117d2613236565b806308c379a00361182e57506117e6613258565b806117f15750611830565b806040517f08c379a00000000000000000000000000000000000000000000000000000000081526004016118259190611dfa565b60405180910390fd5b505b6040517f08c379a00000000000000000000000000000000000000000000000000000000081526004016118629061335a565b60405180910390fd5b63bc197c8160e01b7bffffffffffffffffffffffffffffffffffffffffffffffffffffffff1916817bffffffffffffffffffffffffffffffffffffffffffffffffffffffff1916146118f2576040517f08c379a00000000000000000000000000000000000000000000000000000000081526004016118e9906133ec565b60405180910390fd5b505b505050505050565b60606000600167ffffffffffffffff81111561191b5761191a611e26565b5b6040519080825280602002602001820160405280156119495781602001602082028036833780820191505090505b509050828160008151811061196157611960612bf4565b5b60200260200101818152505080915050919050565b6119958473ffffffffffffffffffffffffffffffffffffffff16611b4d565b15611b45578373ffffffffffffffffffffffffffffffffffffffff1663f23a6e6187878686866040518663ffffffff1660e01b81526004016119db95949392919061340c565b6020604051808303816000875af1925050508015611a1757506040513d601f19601f82011682018060405250810190611a1491906131fc565b60015b611abc57611a23613236565b806308c379a003611a7f5750611a37613258565b80611a425750611a81565b806040517f08c379a0000000000000000000000000000000000000000000000000000000008152600401611a769190611dfa565b60405180910390fd5b505b6040517f08c379a0000000000000000000000000000000000000000000000000000000008152600401611ab39061335a565b60405180910390fd5b63f23a6e6160e01b7bffffffffffffffffffffffffffffffffffffffffffffffffffffffff1916817bffffffffffffffffffffffffffffffffffffffffffffffffffffffff191614611b43576040517f08c379a0000000000000000000000000000000000000000000000000000000008152600401611b3a906133ec565b60405180910390fd5b505b505050505050565b6000808273ffffffffffffffffffffffffffffffffffffffff163b119050919050565b6000604051905090565b600080fd5b600080fd5b600073ffffffffffffffffffffffffffffffffffffffff82169050919050565b6000611baf82611b84565b9050919050565b611bbf81611ba4565b8114611bca57600080fd5b50565b600081359050611bdc81611bb6565b92915050565b6000819050919050565b611bf581611be2565b8114611c0057600080fd5b50565b600081359050611c1281611bec565b92915050565b60008060408385031215611c2f57611c2e611b7a565b5b6000611c3d85828601611bcd565b9250506020611c4e85828601611c03565b9150509250929050565b611c6181611be2565b82525050565b6000602082019050611c7c6000830184611c58565b92915050565b60007fffffffff0000000000000000000000000000000000000000000000000000000082169050919050565b611cb781611c82565b8114611cc257600080fd5b50565b600081359050611cd481611cae565b92915050565b600060208284031215611cf057611cef611b7a565b5b6000611cfe84828501611cc5565b91505092915050565b60008115159050919050565b611d1c81611d07565b82525050565b6000602082019050611d376000830184611d13565b92915050565b600060208284031215611d5357611d52611b7a565b5b6000611d6184828501611c03565b91505092915050565b600081519050919050565b600082825260208201905092915050565b60005b83811015611da4578082015181840152602081019050611d89565b60008484015250505050565b6000601f19601f8301169050919050565b6000611dcc82611d6a565b611dd68185611d75565b9350611de6818560208601611d86565b611def81611db0565b840191505092915050565b60006020820190508181036000830152611e148184611dc1565b905092915050565b600080fd5b600080fd5b7f4e487b7100000000000000000000000000000000000000000000000000000000600052604160045260246000fd5b611e5e82611db0565b810181811067ffffffffffffffff82111715611e7d57611e7c611e26565b5b80604052505050565b6000611e90611b70565b9050611e9c8282611e55565b919050565b600067ffffffffffffffff821115611ebc57611ebb611e26565b5b611ec582611db0565b9050602081019050919050565b82818337600083830152505050565b6000611ef4611eef84611ea1565b611e86565b905082815260208101848484011115611f1057611f0f611e21565b5b611f1b848285611ed2565b509392505050565b600082601f830112611f3857611f37611e1c565b5b8135611f48848260208601611ee1565b91505092915050565b60008060408385031215611f6857611f67611b7a565b5b6000611f7685828601611c03565b925050602083013567ffffffffffffffff811115611f9757611f96611b7f565b5b611fa385828601611f23565b9150509250929050565b600067ffffffffffffffff821115611fc857611fc7611e26565b5b602082029050602081019050919050565b600080fd5b6000611ff1611fec84611fad565b611e86565b9050808382526020820190506020840283018581111561201457612013611fd9565b5b835b8181101561203d57806120298882611c03565b845260208401935050602081019050612016565b5050509392505050565b600082601f83011261205c5761205b611e1c565b5b813561206c848260208601611fde565b91505092915050565b600067ffffffffffffffff8211156120905761208f611e26565b5b61209982611db0565b9050602081019050919050565b60006120b96120b484612075565b611e86565b9050828152602081018484840111156120d5576120d4611e21565b5b6120e0848285611ed2565b509392505050565b600082601f8301126120fd576120fc611e1c565b5b813561210d8482602086016120a6565b91505092915050565b600080600080600060a0868803121561213257612131611b7a565b5b600061214088828901611bcd565b955050602061215188828901611bcd565b945050604086013567ffffffffffffffff81111561217257612171611b7f565b5b61217e88828901612047565b935050606086013567ffffffffffffffff81111561219f5761219e611b7f565b5b6121ab88828901612047565b925050608086013567ffffffffffffffff8111156121cc576121cb611b7f565b5b6121d8888289016120e8565b9150509295509295909350565b600067ffffffffffffffff821115612200576121ff611e26565b5b602082029050602081019050919050565b600061222461221f846121e5565b611e86565b9050808382526020820190506020840283018581111561224757612246611fd9565b5b835b81811015612270578061225c8882611bcd565b845260208401935050602081019050612249565b5050509392505050565b600082601f83011261228f5761228e611e1c565b5b813561229f848260208601612211565b91505092915050565b600080604083850312156122bf576122be611b7a565b5b600083013567ffffffffffffffff8111156122dd576122dc611b7f565b5b6122e98582860161227a565b925050602083013567ffffffffffffffff81111561230a57612309611b7f565b5b61231685828601612047565b9150509250929050565b600081519050919050565b600082825260208201905092915050565b6000819050602082019050919050565b61235581611be2565b82525050565b6000612367838361234c565b60208301905092915050565b6000602082019050919050565b600061238b82612320565b612395818561232b565b93506123a08361233c565b8060005b838110156123d15781516123b8888261235b565b97506123c383612373565b9250506001810190506123a4565b5085935050505092915050565b600060208201905081810360008301526123f88184612380565b905092915050565b6000806000806080858703121561241a57612419611b7a565b5b600061242887828801611c03565b945050602061243987828801611c03565b935050604085013567ffffffffffffffff81111561245a57612459611b7f565b5b61246687828801611f23565b925050606061247787828801611bcd565b91505092959194509250565b61248c81611ba4565b82525050565b60006020820190506124a76000830184612483565b92915050565b600081519050919050565b600082825260208201905092915050565b6000819050602082019050919050565b600082825260208201905092915050565b60006124f582611d6a565b6124ff81856124d9565b935061250f818560208601611d86565b61251881611db0565b840191505092915050565b600061252f83836124ea565b905092915050565b6000602082019050919050565b600061254f826124ad565b61255981856124b8565b93508360208202850161256b856124c9565b8060005b858110156125a757848403895281516125888582612523565b945061259383612537565b925060208a0199505060018101905061256f565b50829750879550505050505092915050565b600060408201905081810360008301526125d38185612380565b905081810360208301526125e78184612544565b90509392505050565b6125f981611d07565b811461260457600080fd5b50565b600081359050612616816125f0565b92915050565b6000806040838503121561263357612632611b7a565b5b600061264185828601611bcd565b925050602061265285828601612607565b9150509250929050565b6000806040838503121561267357612672611b7a565b5b600061268185828601611bcd565b925050602061269285828601611bcd565b9150509250929050565b600080600080600060a086880312156126b8576126b7611b7a565b5b60006126c688828901611bcd565b95505060206126d788828901611bcd565b94505060406126e888828901611c03565b93505060606126f988828901611c03565b925050608086013567ffffffffffffffff81111561271a57612719611b7f565b5b612726888289016120e8565b9150509295509295909350565b60006020828403121561274957612748611b7a565b5b600061275784828501611bcd565b91505092915050565b7f455243313135353a2061646472657373207a65726f206973206e6f742061207660008201527f616c6964206f776e657200000000000000000000000000000000000000000000602082015250565b60006127bc602a83611d75565b91506127c782612760565b604082019050919050565b600060208201905081810360008301526127eb816127af565b9050919050565b7f4e487b7100000000000000000000000000000000000000000000000000000000600052602260045260246000fd5b6000600282049050600182168061283957607f821691505b60208210810361284c5761284b6127f2565b5b50919050565b60008190508160005260206000209050919050565b60006020601f8301049050919050565b600082821b905092915050565b6000600883026128b47fffffffffffffffffffffffffffffffffffffffffffffffffffffffffffffffff82612877565b6128be8683612877565b95508019841693508086168417925050509392505050565b6000819050919050565b60006128fb6128f66128f184611be2565b6128d6565b611be2565b9050919050565b6000819050919050565b612915836128e0565b61292961292182612902565b848454612884565b825550505050565b600090565b61293e612931565b61294981848461290c565b505050565b5b8181101561296d57612962600082612936565b60018101905061294f565b5050565b601f8211156129b25761298381612852565b61298c84612867565b8101602085101561299b578190505b6129af6129a785612867565b83018261294e565b50505b505050565b600082821c905092915050565b60006129d5600019846008026129b7565b1980831691505092915050565b60006129ee83836129c4565b9150826002028217905092915050565b612a0782611d6a565b67ffffffffffffffff811115612a2057612a1f611e26565b5b612a2a8254612821565b612a35828285612971565b600060209050601f831160018114612a685760008415612a56578287015190505b612a6085826129e2565b865550612ac8565b601f198416612a7686612852565b60005b82811015612a9e57848901518255600182019150602085019450602081019050612a79565b86831015612abb5784890151612ab7601f8916826129c4565b8355505b6001600288020188555050505b505050505050565b7f455243313135353a2063616c6c6572206973206e6f7420746f6b656e206f776e60008201527f6572206f7220617070726f766564000000000000000000000000000000000000602082015250565b6000612b2c602e83611d75565b9150612b3782612ad0565b604082019050919050565b60006020820190508181036000830152612b5b81612b1f565b9050919050565b7f455243313135353a206163636f756e747320616e6420696473206c656e67746860008201527f206d69736d617463680000000000000000000000000000000000000000000000602082015250565b6000612bbe602983611d75565b9150612bc982612b62565b604082019050919050565b60006020820190508181036000830152612bed81612bb1565b9050919050565b7f4e487b7100000000000000000000000000000000000000000000000000000000600052603260045260246000fd5b7f546f6b656e20494420646f6573206e6f742065786973742e0000000000000000600082015250565b6000612c59601883611d75565b9150612c6482612c23565b602082019050919050565b60006020820190508181036000830152612c8881612c4c565b9050919050565b7f4f776e61626c653a206e6577206f776e657220697320746865207a65726f206160008201527f6464726573730000000000000000000000000000000000000000000000000000602082015250565b6000612ceb602683611d75565b9150612cf682612c8f565b604082019050919050565b60006020820190508181036000830152612d1a81612cde565b9050919050565b7f4f776e61626c653a2063616c6c6572206973206e6f7420746865206f776e6572600082015250565b6000612d57602083611d75565b9150612d6282612d21565b602082019050919050565b60006020820190508181036000830152612d8681612d4a565b9050919050565b7f455243313135353a2069647320616e6420616d6f756e7473206c656e6774682060008201527f6d69736d61746368000000000000000000000000000000000000000000000000602082015250565b6000612de9602883611d75565b9150612df482612d8d565b604082019050919050565b60006020820190508181036000830152612e1881612ddc565b9050919050565b7f455243313135353a207472616e7366657220746f20746865207a65726f20616460008201527f6472657373000000000000000000000000000000000000000000000000000000602082015250565b6000612e7b602583611d75565b9150612e8682612e1f565b604082019050919050565b60006020820190508181036000830152612eaa81612e6e565b9050919050565b7f455243313135353a20696e73756666696369656e742062616c616e636520666f60008201527f72207472616e7366657200000000000000000000000000000000000000000000602082015250565b6000612f0d602a83611d75565b9150612f1882612eb1565b604082019050919050565b60006020820190508181036000830152612f3c81612f00565b9050919050565b7f4e487b7100000000000000000000000000000000000000000000000000000000600052601160045260246000fd5b6000612f7d82611be2565b9150612f8883611be2565b9250828201905080821115612fa057612f9f612f43565b5b92915050565b60006040820190508181036000830152612fc08185612380565b90508181036020830152612fd48184612380565b90509392505050565b7f455243313135353a206d696e7420746f20746865207a65726f2061646472657360008201527f7300000000000000000000000000000000000000000000000000000000000000602082015250565b6000613039602183611d75565b915061304482612fdd565b604082019050919050565b600060208201905081810360008301526130688161302c565b9050919050565b60006040820190506130846000830185611c58565b6130916020830184611c58565b9392505050565b7f455243313135353a2073657474696e6720617070726f76616c2073746174757360008201527f20666f722073656c660000000000000000000000000000000000000000000000602082015250565b60006130f4602983611d75565b91506130ff82613098565b604082019050919050565b60006020820190508181036000830152613123816130e7565b9050919050565b600081519050919050565b600082825260208201905092915050565b60006131518261312a565b61315b8185613135565b935061316b818560208601611d86565b61317481611db0565b840191505092915050565b600060a0820190506131946000830188612483565b6131a16020830187612483565b81810360408301526131b38186612380565b905081810360608301526131c78185612380565b905081810360808301526131db8184613146565b90509695505050505050565b6000815190506131f681611cae565b92915050565b60006020828403121561321257613211611b7a565b5b6000613220848285016131e7565b91505092915050565b60008160e01c9050919050565b600060033d11156132555760046000803e613252600051613229565b90505b90565b600060443d106132e55761326a611b70565b60043d036004823e80513d602482011167ffffffffffffffff821117156132925750506132e5565b808201805167ffffffffffffffff8111156132b057505050506132e5565b80602083010160043d0385018111156132cd5750505050506132e5565b6132dc82602001850186611e55565b82955050505050505b90565b7f455243313135353a207472616e7366657220746f206e6f6e2d4552433131353560008201527f526563656976657220696d706c656d656e746572000000000000000000000000602082015250565b6000613344603483611d75565b915061334f826132e8565b604082019050919050565b6000602082019050818103600083015261337381613337565b9050919050565b7f455243313135353a204552433131353552656365697665722072656a6563746560008201527f6420746f6b656e73000000000000000000000000000000000000000000000000602082015250565b60006133d6602883611d75565b91506133e18261337a565b604082019050919050565b60006020820190508181036000830152613405816133c9565b9050919050565b600060a0820190506134216000830188612483565b61342e6020830187612483565b61343b6040830186611c58565b6134486060830185611c58565b818103608083015261345a8184613146565b9050969550505050505056fea264697066735822122064cd579760f235f50338f8a99bf341230432e722947610285d1a097152d366dd64736f6c6343000818003368747470733a2f2f617a7572652d7772697474656e2d76756c747572652d3138312e6d7970696e6174612e636c6f75642f697066732f516d5a7158383658653548503934633631344d614e3654364c3675536368434b366f6e6f446e46375a725050755068747470733a2f2f617a7572652d7772697474656e2d76756c747572652d3138312e6d7970696e6174612e636c6f75642f697066732f516d5735456b765051477a35626a5a684e6a7975506b35316f503333577a4a3733426657714559566e486470685468747470733a2f2f617a7572652d7772697474656e2d76756c747572652d3138312e6d7970696e6174612e636c6f75642f697066732f516d55546355575a47505259616555746936734e6f4b6d346778346d753659614b5576716e7246726f4a7439464568747470733a2f2f617a7572652d7772697474656e2d76756c747572652d3138312e6d7970696e6174612e636c6f75642f697066732f516d5356415968315258506e74626544766838766f65336f67465a6d4c53525071486b716769564778443536447068747470733a2f2f617a7572652d7772697474656e2d76756c747572652d3138312e6d7970696e6174612e636c6f75642f697066732f516d537744434232574d464c674638464c63774842745237616a4457536543655154314a4d547243737a73776e3468747470733a2f2f617a7572652d7772697474656e2d76756c747572652d3138312e6d7970696e6174612e636c6f75642f697066732f516d525071666e7461525935794a6f7048334268617279424a467276544167514e4265657659315a4a4734324657",
  "linkReferences": {},
  "deployedLinkReferences": {}
}